{
  "address": "0x842905f5a0CeFEC9e6f04A8e3b99e86F17224bef",
  "abi": [
    {
      "inputs": [
        {
          "internalType": "uint256",
          "name": "enterFee",
          "type": "uint256"
        },
        {
          "internalType": "uint256",
          "name": "subscriptionId",
          "type": "uint256"
        },
        {
          "internalType": "bool",
          "name": "enableNativePayment",
          "type": "bool"
        },
        {
          "internalType": "uint256",
          "name": "interval",
          "type": "uint256"
        },
        {
          "internalType": "address",
          "name": "vrfCoordinator",
          "type": "address"
        },
        {
          "internalType": "bytes32",
          "name": "keyHash",
          "type": "bytes32"
        },
        {
          "internalType": "uint32",
          "name": "callbackGasLimit",
          "type": "uint32"
        }
      ],
      "stateMutability": "nonpayable",
      "type": "constructor"
    },
    {
      "inputs": [
        {
          "internalType": "address",
          "name": "have",
          "type": "address"
        },
        {
          "internalType": "address",
          "name": "want",
          "type": "address"
        }
      ],
      "name": "OnlyCoordinatorCanFulfill",
      "type": "error"
    },
    {
      "inputs": [
        {
          "internalType": "address",
          "name": "have",
          "type": "address"
        },
        {
          "internalType": "address",
          "name": "owner",
          "type": "address"
        },
        {
          "internalType": "address",
          "name": "coordinator",
          "type": "address"
        }
      ],
      "name": "OnlyOwnerOrCoordinator",
      "type": "error"
    },
    {
      "inputs": [],
      "name": "ZeroAddress",
      "type": "error"
    },
    {
      "anonymous": false,
      "inputs": [
        {
          "indexed": false,
          "internalType": "address",
          "name": "vrfCoordinator",
          "type": "address"
        }
      ],
      "name": "CoordinatorSet",
      "type": "event"
    },
    {
      "anonymous": false,
      "inputs": [
        {
          "indexed": true,
          "internalType": "address",
          "name": "from",
          "type": "address"
        },
        {
          "indexed": true,
          "internalType": "address",
          "name": "to",
          "type": "address"
        }
      ],
      "name": "OwnershipTransferRequested",
      "type": "event"
    },
    {
      "anonymous": false,
      "inputs": [
        {
          "indexed": true,
          "internalType": "address",
          "name": "from",
          "type": "address"
        },
        {
          "indexed": true,
          "internalType": "address",
          "name": "to",
          "type": "address"
        }
      ],
      "name": "OwnershipTransferred",
      "type": "event"
    },
    {
      "anonymous": false,
      "inputs": [
        {
          "indexed": true,
          "internalType": "address",
          "name": "players",
          "type": "address"
        }
      ],
      "name": "RaffleEnter",
      "type": "event"
    },
    {
      "anonymous": false,
      "inputs": [
        {
          "indexed": false,
          "internalType": "address",
          "name": "",
          "type": "address"
        }
      ],
      "name": "WinnerPicked",
      "type": "event"
    },
    {
      "inputs": [],
      "name": "acceptOwnership",
      "outputs": [],
      "stateMutability": "nonpayable",
      "type": "function"
    },
    {
      "inputs": [
        {
          "internalType": "bytes",
          "name": "",
          "type": "bytes"
        }
      ],
      "name": "checkUpkeep",
      "outputs": [
        {
          "internalType": "bool",
          "name": "upkeepNeeded",
          "type": "bool"
        },
        {
          "internalType": "bytes",
          "name": "",
          "type": "bytes"
        }
      ],
      "stateMutability": "view",
      "type": "function"
    },
    {
      "inputs": [],
      "name": "enterFeeToRaffle",
      "outputs": [
        {
          "internalType": "uint256",
          "name": "",
          "type": "uint256"
        }
      ],
      "stateMutability": "view",
      "type": "function"
    },
    {
      "inputs": [],
      "name": "enterRaffle",
      "outputs": [],
      "stateMutability": "payable",
      "type": "function"
    },
    {
      "inputs": [],
      "name": "getConfirmation",
      "outputs": [
        {
          "internalType": "uint16",
          "name": "",
          "type": "uint16"
        }
      ],
      "stateMutability": "pure",
      "type": "function"
    },
    {
      "inputs": [],
      "name": "getContractBalance",
      "outputs": [
        {
          "internalType": "uint256",
          "name": "",
          "type": "uint256"
        }
      ],
      "stateMutability": "view",
      "type": "function"
    },
    {
      "inputs": [],
      "name": "getEnableNativePayment",
      "outputs": [
        {
          "internalType": "bool",
          "name": "",
          "type": "bool"
        }
      ],
      "stateMutability": "view",
      "type": "function"
    },
    {
      "inputs": [],
      "name": "getInterval",
      "outputs": [
        {
          "internalType": "uint256",
          "name": "",
          "type": "uint256"
        }
      ],
      "stateMutability": "view",
      "type": "function"
    },
    {
      "inputs": [],
      "name": "getLatestTimeStamp",
      "outputs": [
        {
          "internalType": "uint256",
          "name": "",
          "type": "uint256"
        }
      ],
      "stateMutability": "view",
      "type": "function"
    },
    {
      "inputs": [],
      "name": "getNumberofPlayers",
      "outputs": [
        {
          "internalType": "uint256",
          "name": "",
          "type": "uint256"
        }
      ],
      "stateMutability": "view",
      "type": "function"
    },
    {
      "inputs": [
        {
          "internalType": "uint256",
          "name": "index",
          "type": "uint256"
        }
      ],
      "name": "getPlayers",
      "outputs": [
        {
          "internalType": "address",
          "name": "",
          "type": "address"
        }
      ],
      "stateMutability": "view",
      "type": "function"
    },
    {
      "inputs": [],
      "name": "getRaffleState",
      "outputs": [
        {
          "internalType": "enum Raffle.RaffleState",
          "name": "",
          "type": "uint8"
        }
      ],
      "stateMutability": "view",
      "type": "function"
    },
    {
      "inputs": [],
      "name": "getRandomWords",
      "outputs": [
        {
          "internalType": "uint256",
          "name": "",
          "type": "uint256"
        }
      ],
      "stateMutability": "view",
      "type": "function"
    },
    {
      "inputs": [],
      "name": "getRecentWinner",
      "outputs": [
        {
          "internalType": "address",
          "name": "",
          "type": "address"
        }
      ],
      "stateMutability": "view",
      "type": "function"
    },
    {
      "inputs": [],
      "name": "getRuffleTarget",
      "outputs": [
        {
          "internalType": "uint256",
          "name": "",
          "type": "uint256"
        }
      ],
      "stateMutability": "pure",
      "type": "function"
    },
    {
      "inputs": [],
      "name": "owner",
      "outputs": [
        {
          "internalType": "address",
          "name": "",
          "type": "address"
        }
      ],
      "stateMutability": "view",
      "type": "function"
    },
    {
      "inputs": [
        {
          "internalType": "bytes",
          "name": "",
          "type": "bytes"
        }
      ],
      "name": "performUpkeep",
      "outputs": [],
      "stateMutability": "nonpayable",
      "type": "function"
    },
    {
      "inputs": [
        {
          "internalType": "uint256",
          "name": "requestId",
          "type": "uint256"
        },
        {
          "internalType": "uint256[]",
          "name": "randomWords",
          "type": "uint256[]"
        }
      ],
      "name": "rawFulfillRandomWords",
      "outputs": [],
      "stateMutability": "nonpayable",
      "type": "function"
    },
    {
      "inputs": [],
      "name": "s_vrfCoordinator",
      "outputs": [
        {
          "internalType": "contract IVRFCoordinatorV2Plus",
          "name": "",
          "type": "address"
        }
      ],
      "stateMutability": "view",
      "type": "function"
    },
    {
      "inputs": [
        {
          "internalType": "address",
          "name": "_vrfCoordinator",
          "type": "address"
        }
      ],
      "name": "setCoordinator",
      "outputs": [],
      "stateMutability": "nonpayable",
      "type": "function"
    },
    {
      "inputs": [
        {
          "internalType": "address",
          "name": "to",
          "type": "address"
        }
      ],
      "name": "transferOwnership",
      "outputs": [],
      "stateMutability": "nonpayable",
      "type": "function"
    }
  ],
  "transactionHash": "0x88d2ca4b33ec69c1207b8b1ac6a75b615fe6fc55706d00ccd83e81beb60272ad",
  "args": [
    "100000000000000000",
    "71038342698641640251546232328411716251635661876714968365279827331554696549765",
    false,
    "39",
    "0x9ddfaca8183c41ad55329bdeed9f6a8d53168b1b",
    "0x787d74caea10b2b357790d5b5247c2f63d1d91572a9846f780606e4d953677ae",
    "500000"
  ],
  "numDeployments": 1,
  "solcInputHash": "24aabd7284407d9d33d761e70672264c",
  "bytecode": "0x61014060405234801561001157600080fd5b506040516128d13803806128d18339818101604052810190610033919061052a565b82338060008073ffffffffffffffffffffffffffffffffffffffff168273ffffffffffffffffffffffffffffffffffffffff16036100a6576040517f08c379a000000000000000000000000000000000000000000000000000000000815260040161009d90610629565b60405180910390fd5b816000806101000a81548173ffffffffffffffffffffffffffffffffffffffff021916908373ffffffffffffffffffffffffffffffffffffffff160217905550600073ffffffffffffffffffffffffffffffffffffffff168173ffffffffffffffffffffffffffffffffffffffff161461012a57610129816102bb60201b60201c565b5b505050600073ffffffffffffffffffffffffffffffffffffffff168173ffffffffffffffffffffffffffffffffffffffff1603610193576040517fd92e233d00000000000000000000000000000000000000000000000000000000815260040160405180910390fd5b80600260006101000a81548173ffffffffffffffffffffffffffffffffffffffff021916908373ffffffffffffffffffffffffffffffffffffffff1602179055505086608081815250508560048190555084151560e0811515815250503373ffffffffffffffffffffffffffffffffffffffff166101008173ffffffffffffffffffffffffffffffffffffffff1681525050426008819055508361012081815250506000600960006101000a81548160ff0219169083600181111561025b5761025a610649565b5b02179055508063ffffffff1660c08163ffffffff16815250508273ffffffffffffffffffffffffffffffffffffffff1660a08173ffffffffffffffffffffffffffffffffffffffff168152505081600581905550505050505050506106e4565b3373ffffffffffffffffffffffffffffffffffffffff168173ffffffffffffffffffffffffffffffffffffffff1603610329576040517f08c379a0000000000000000000000000000000000000000000000000000000008152600401610320906106c4565b60405180910390fd5b80600160006101000a81548173ffffffffffffffffffffffffffffffffffffffff021916908373ffffffffffffffffffffffffffffffffffffffff1602179055508073ffffffffffffffffffffffffffffffffffffffff1660008054906101000a900473ffffffffffffffffffffffffffffffffffffffff1673ffffffffffffffffffffffffffffffffffffffff167fed8889f560326eb138920d842192f0eb3dd22b4f139c87a2c57538e05bae127860405160405180910390a350565b600080fd5b6000819050919050565b6103ff816103ec565b811461040a57600080fd5b50565b60008151905061041c816103f6565b92915050565b60008115159050919050565b61043781610422565b811461044257600080fd5b50565b6000815190506104548161042e565b92915050565b600073ffffffffffffffffffffffffffffffffffffffff82169050919050565b60006104858261045a565b9050919050565b6104958161047a565b81146104a057600080fd5b50565b6000815190506104b28161048c565b92915050565b6000819050919050565b6104cb816104b8565b81146104d657600080fd5b50565b6000815190506104e8816104c2565b92915050565b600063ffffffff82169050919050565b610507816104ee565b811461051257600080fd5b50565b600081519050610524816104fe565b92915050565b600080600080600080600060e0888a031215610549576105486103e7565b5b60006105578a828b0161040d565b97505060206105688a828b0161040d565b96505060406105798a828b01610445565b955050606061058a8a828b0161040d565b945050608061059b8a828b016104a3565b93505060a06105ac8a828b016104d9565b92505060c06105bd8a828b01610515565b91505092959891949750929550565b600082825260208201905092915050565b7f43616e6e6f7420736574206f776e657220746f207a65726f0000000000000000600082015250565b60006106136018836105cc565b915061061e826105dd565b602082019050919050565b6000602082019050818103600083015261064281610606565b9050919050565b7f4e487b7100000000000000000000000000000000000000000000000000000000600052602160045260246000fd5b7f43616e6e6f74207472616e7366657220746f2073656c66000000000000000000600082015250565b60006106ae6017836105cc565b91506106b982610678565b602082019050919050565b600060208201905081810360008301526106dd816106a1565b9050919050565b60805160a05160c05160e051610100516101205161218f610742600039600081816109a50152610e390152600050506000818161086301526109790152600061081c0152600050506000818161057d0152610e90015261218f6000f3fe60806040526004361061012a5760003560e01c80636f9fb98a116100ab5780639eccacf61161006f5780639eccacf61461039e578063ac902eb1146103c9578063b76cbe1c146103f4578063ce10b1fb1461041f578063d235164c1461044a578063f2fde38b146104755761012a565b80636f9fb98a146102dd57806379ba5097146103085780638da5cb5b1461031f5780638ea981171461034a57806391ad27b4146103735761012a565b8063460e2049116100f2578063460e2049146101e1578063473f1ddc1461021e57806349a706ce1461024957806367586506146102745780636e04ff0d1461029f5761012a565b8063115cbaf51461012f5780631fe543e31461015a5780632cfcc53914610183578063320229eb1461018d5780634585e33b146101b8575b600080fd5b34801561013b57600080fd5b5061014461049e565b60405161015191906114c9565b60405180910390f35b34801561016657600080fd5b50610181600480360381019061017c9190611593565b6104b5565b005b61018b61057b565b005b34801561019957600080fd5b506101a26106fc565b6040516101af9190611602565b60405180910390f35b3480156101c457600080fd5b506101df60048036038101906101da9190611673565b610706565b005b3480156101ed57600080fd5b50610208600480360381019061020391906116c0565b6108f6565b604051610215919061172e565b60405180910390f35b34801561022a57600080fd5b5061023361093e565b604051610240919061172e565b60405180910390f35b34801561025557600080fd5b5061025e610968565b60405161026b9190611602565b60405180910390f35b34801561028057600080fd5b50610289610975565b6040516102969190611764565b60405180910390f35b3480156102ab57600080fd5b506102c660048036038101906102c191906118c0565b61099d565b6040516102d4929190611988565b60405180910390f35b3480156102e957600080fd5b506102f2610a89565b6040516102ff9190611602565b60405180910390f35b34801561031457600080fd5b5061031d610a96565b005b34801561032b57600080fd5b50610334610c2b565b604051610341919061172e565b60405180910390f35b34801561035657600080fd5b50610371600480360381019061036c91906119e4565b610c54565b005b34801561037f57600080fd5b50610388610e35565b6040516103959190611602565b60405180910390f35b3480156103aa57600080fd5b506103b3610e5d565b6040516103c09190611a70565b60405180910390f35b3480156103d557600080fd5b506103de610e83565b6040516103eb9190611aa8565b60405180910390f35b34801561040057600080fd5b50610409610e8c565b6040516104169190611602565b60405180910390f35b34801561042b57600080fd5b50610434610eb4565b6040516104419190611602565b60405180910390f35b34801561045657600080fd5b5061045f610ebe565b60405161046c9190611602565b60405180910390f35b34801561048157600080fd5b5061049c600480360381019061049791906119e4565b610eca565b005b6000600960009054906101000a900460ff16905090565b600260009054906101000a900473ffffffffffffffffffffffffffffffffffffffff1673ffffffffffffffffffffffffffffffffffffffff163373ffffffffffffffffffffffffffffffffffffffff161461056b5733600260009054906101000a900473ffffffffffffffffffffffffffffffffffffffff166040517f1cf993f4000000000000000000000000000000000000000000000000000000008152600401610562929190611ac3565b60405180910390fd5b610576838383610ede565b505050565b7f00000000000000000000000000000000000000000000000000000000000000003410156105de576040517f08c379a00000000000000000000000000000000000000000000000000000000081526004016105d590611b6f565b60405180910390fd5b600060018111156105f2576105f1611452565b5b600960009054906101000a900460ff16600181111561061457610613611452565b5b14610654576040517f08c379a000000000000000000000000000000000000000000000000000000000815260040161064b90611bdb565b60405180910390fd5b6003339080600181540180825580915050600190039060005260206000200160009091909190916101000a81548173ffffffffffffffffffffffffffffffffffffffff021916908373ffffffffffffffffffffffffffffffffffffffff1602179055503373ffffffffffffffffffffffffffffffffffffffff167f0805e1d667bddb8a95f0f09880cf94f403fb596ce79928d9f29b74203ba284d460405160405180910390a2565b6000600854905090565b60006107466040518060400160405280600281526020017f307800000000000000000000000000000000000000000000000000000000000081525061099d565b50905080610789576040517f08c379a000000000000000000000000000000000000000000000000000000000815260040161078090611c47565b60405180910390fd5b6001600960006101000a81548160ff021916908360018111156107af576107ae611452565b5b02179055506000600260009054906101000a900473ffffffffffffffffffffffffffffffffffffffff1673ffffffffffffffffffffffffffffffffffffffff16639b1c385e6040518060c0016040528060055481526020016004548152602001600361ffff1681526020017f000000000000000000000000000000000000000000000000000000000000000063ffffffff168152602001600163ffffffff16815260200161088c60405180602001604052807f00000000000000000000000000000000000000000000000000000000000000001515815250611157565b8152506040518263ffffffff1660e01b81526004016108ab9190611d90565b6020604051808303816000875af11580156108ca573d6000803e3d6000fd5b505050506040513d601f19601f820116820180604052508101906108ee9190611dc7565b905050505050565b60006003828154811061090c5761090b611df4565b5b9060005260206000200160009054906101000a900473ffffffffffffffffffffffffffffffffffffffff169050919050565b6000600760009054906101000a900473ffffffffffffffffffffffffffffffffffffffff16905090565b6000600380549050905090565b60007f0000000000000000000000000000000000000000000000000000000000000000905090565b6000606060007f0000000000000000000000000000000000000000000000000000000000000000600854426109d29190611e52565b11905060008060018111156109ea576109e9611452565b5b600960009054906101000a900460ff166001811115610a0c57610a0b611452565b5b1490506000806003805490501190506000633b9aca004710159050838015610a315750825b8015610a3a5750815b8015610a435750805b9550856040518060400160405280600281526020017f30780000000000000000000000000000000000000000000000000000000000008152509550955050505050915091565b6000804790508091505090565b600160009054906101000a900473ffffffffffffffffffffffffffffffffffffffff1673ffffffffffffffffffffffffffffffffffffffff163373ffffffffffffffffffffffffffffffffffffffff1614610b26576040517f08c379a0000000000000000000000000000000000000000000000000000000008152600401610b1d90611ed2565b60405180910390fd5b60008060009054906101000a900473ffffffffffffffffffffffffffffffffffffffff169050336000806101000a81548173ffffffffffffffffffffffffffffffffffffffff021916908373ffffffffffffffffffffffffffffffffffffffff1602179055506000600160006101000a81548173ffffffffffffffffffffffffffffffffffffffff021916908373ffffffffffffffffffffffffffffffffffffffff1602179055503373ffffffffffffffffffffffffffffffffffffffff168173ffffffffffffffffffffffffffffffffffffffff167f8be0079c531659141344cd1fd0a4f28419497f9722a3daafe3b4186f6b6457e060405160405180910390a350565b60008060009054906101000a900473ffffffffffffffffffffffffffffffffffffffff16905090565b610c5c610c2b565b73ffffffffffffffffffffffffffffffffffffffff163373ffffffffffffffffffffffffffffffffffffffff1614158015610ce55750600260009054906101000a900473ffffffffffffffffffffffffffffffffffffffff1673ffffffffffffffffffffffffffffffffffffffff163373ffffffffffffffffffffffffffffffffffffffff1614155b15610d545733610cf3610c2b565b600260009054906101000a900473ffffffffffffffffffffffffffffffffffffffff166040517f061db9c1000000000000000000000000000000000000000000000000000000008152600401610d4b93929190611ef2565b60405180910390fd5b600073ffffffffffffffffffffffffffffffffffffffff168173ffffffffffffffffffffffffffffffffffffffff1603610dba576040517fd92e233d00000000000000000000000000000000000000000000000000000000815260040160405180910390fd5b80600260006101000a81548173ffffffffffffffffffffffffffffffffffffffff021916908373ffffffffffffffffffffffffffffffffffffffff1602179055507fd1a6a14209a385a964d036e404cb5cfb71f4000cdb03c9366292430787261be681604051610e2a919061172e565b60405180910390a150565b60007f0000000000000000000000000000000000000000000000000000000000000000905090565b600260009054906101000a900473ffffffffffffffffffffffffffffffffffffffff1681565b60006003905090565b60007f0000000000000000000000000000000000000000000000000000000000000000905090565b6000600654905090565b6000633b9aca00905090565b610ed26111ef565b610edb8161127f565b50565b81816000818110610ef257610ef1611df4565b5b905060200201356006819055506000600380549050600654610f149190611f58565b905060038181548110610f2a57610f29611df4565b5b9060005260206000200160009054906101000a900473ffffffffffffffffffffffffffffffffffffffff16600760006101000a81548173ffffffffffffffffffffffffffffffffffffffff021916908373ffffffffffffffffffffffffffffffffffffffff1602179055506000600760009054906101000a900473ffffffffffffffffffffffffffffffffffffffff1673ffffffffffffffffffffffffffffffffffffffff1647604051610fdd90611fba565b60006040518083038185875af1925050503d806000811461101a576040519150601f19603f3d011682016040523d82523d6000602084013e61101f565b606091505b50508091505080611065576040517f08c379a000000000000000000000000000000000000000000000000000000000815260040161105c9061201b565b60405180910390fd5b600067ffffffffffffffff8111156110805761107f611795565b5b6040519080825280602002602001820160405280156110ae5781602001602082028036833780820191505090505b50600390805190602001906110c49291906113ab565b506000600960006101000a81548160ff021916908360018111156110eb576110ea611452565b5b0217905550426008819055507f5b690ec4a06fe979403046eaeea5b3ce38524683c3001f662c8b5a829632f7df600760009054906101000a900473ffffffffffffffffffffffffffffffffffffffff16604051611148919061172e565b60405180910390a15050505050565b60607f92fd13387c7fe7befbc38d303d6468778fb9731bc4583f17d92989c6fcfdeaaa8260405160240161118b9190612066565b604051602081830303815290604052907bffffffffffffffffffffffffffffffffffffffffffffffffffffffff19166020820180517bffffffffffffffffffffffffffffffffffffffffffffffffffffffff83818316178352505050509050919050565b60008054906101000a900473ffffffffffffffffffffffffffffffffffffffff1673ffffffffffffffffffffffffffffffffffffffff163373ffffffffffffffffffffffffffffffffffffffff161461127d576040517f08c379a0000000000000000000000000000000000000000000000000000000008152600401611274906120cd565b60405180910390fd5b565b3373ffffffffffffffffffffffffffffffffffffffff168173ffffffffffffffffffffffffffffffffffffffff16036112ed576040517f08c379a00000000000000000000000000000000000000000000000000000000081526004016112e490612139565b60405180910390fd5b80600160006101000a81548173ffffffffffffffffffffffffffffffffffffffff021916908373ffffffffffffffffffffffffffffffffffffffff1602179055508073ffffffffffffffffffffffffffffffffffffffff1660008054906101000a900473ffffffffffffffffffffffffffffffffffffffff1673ffffffffffffffffffffffffffffffffffffffff167fed8889f560326eb138920d842192f0eb3dd22b4f139c87a2c57538e05bae127860405160405180910390a350565b828054828255906000526020600020908101928215611424579160200282015b828111156114235782518260006101000a81548173ffffffffffffffffffffffffffffffffffffffff021916908373ffffffffffffffffffffffffffffffffffffffff160217905550916020019190600101906113cb565b5b5090506114319190611435565b5090565b5b8082111561144e576000816000905550600101611436565b5090565b7f4e487b7100000000000000000000000000000000000000000000000000000000600052602160045260246000fd5b6002811061149257611491611452565b5b50565b60008190506114a382611481565b919050565b60006114b382611495565b9050919050565b6114c3816114a8565b82525050565b60006020820190506114de60008301846114ba565b92915050565b6000604051905090565b600080fd5b600080fd5b6000819050919050565b61150b816114f8565b811461151657600080fd5b50565b60008135905061152881611502565b92915050565b600080fd5b600080fd5b600080fd5b60008083601f8401126115535761155261152e565b5b8235905067ffffffffffffffff8111156115705761156f611533565b5b60208301915083602082028301111561158c5761158b611538565b5b9250929050565b6000806000604084860312156115ac576115ab6114ee565b5b60006115ba86828701611519565b935050602084013567ffffffffffffffff8111156115db576115da6114f3565b5b6115e78682870161153d565b92509250509250925092565b6115fc816114f8565b82525050565b600060208201905061161760008301846115f3565b92915050565b60008083601f8401126116335761163261152e565b5b8235905067ffffffffffffffff8111156116505761164f611533565b5b60208301915083600182028301111561166c5761166b611538565b5b9250929050565b6000806020838503121561168a576116896114ee565b5b600083013567ffffffffffffffff8111156116a8576116a76114f3565b5b6116b48582860161161d565b92509250509250929050565b6000602082840312156116d6576116d56114ee565b5b60006116e484828501611519565b91505092915050565b600073ffffffffffffffffffffffffffffffffffffffff82169050919050565b6000611718826116ed565b9050919050565b6117288161170d565b82525050565b6000602082019050611743600083018461171f565b92915050565b60008115159050919050565b61175e81611749565b82525050565b60006020820190506117796000830184611755565b92915050565b600080fd5b6000601f19601f8301169050919050565b7f4e487b7100000000000000000000000000000000000000000000000000000000600052604160045260246000fd5b6117cd82611784565b810181811067ffffffffffffffff821117156117ec576117eb611795565b5b80604052505050565b60006117ff6114e4565b905061180b82826117c4565b919050565b600067ffffffffffffffff82111561182b5761182a611795565b5b61183482611784565b9050602081019050919050565b82818337600083830152505050565b600061186361185e84611810565b6117f5565b90508281526020810184848401111561187f5761187e61177f565b5b61188a848285611841565b509392505050565b600082601f8301126118a7576118a661152e565b5b81356118b7848260208601611850565b91505092915050565b6000602082840312156118d6576118d56114ee565b5b600082013567ffffffffffffffff8111156118f4576118f36114f3565b5b61190084828501611892565b91505092915050565b600081519050919050565b600082825260208201905092915050565b60005b83811015611943578082015181840152602081019050611928565b60008484015250505050565b600061195a82611909565b6119648185611914565b9350611974818560208601611925565b61197d81611784565b840191505092915050565b600060408201905061199d6000830185611755565b81810360208301526119af818461194f565b90509392505050565b6119c18161170d565b81146119cc57600080fd5b50565b6000813590506119de816119b8565b92915050565b6000602082840312156119fa576119f96114ee565b5b6000611a08848285016119cf565b91505092915050565b6000819050919050565b6000611a36611a31611a2c846116ed565b611a11565b6116ed565b9050919050565b6000611a4882611a1b565b9050919050565b6000611a5a82611a3d565b9050919050565b611a6a81611a4f565b82525050565b6000602082019050611a856000830184611a61565b92915050565b600061ffff82169050919050565b611aa281611a8b565b82525050565b6000602082019050611abd6000830184611a99565b92915050565b6000604082019050611ad8600083018561171f565b611ae5602083018461171f565b9392505050565b600082825260208201905092915050565b7f706c656163652073656e64206174206c65617374206f6e6520656e746572466560008201527f6500000000000000000000000000000000000000000000000000000000000000602082015250565b6000611b59602183611aec565b9150611b6482611afd565b604082019050919050565b60006020820190508181036000830152611b8881611b4c565b9050919050565b7f74686520726166666c65206973206e6f74206f70656e00000000000000000000600082015250565b6000611bc5601683611aec565b9150611bd082611b8f565b602082019050919050565b60006020820190508181036000830152611bf481611bb8565b9050919050565b7f75706b6565704e6565646564206e6f772069732066616c736500000000000000600082015250565b6000611c31601983611aec565b9150611c3c82611bfb565b602082019050919050565b60006020820190508181036000830152611c6081611c24565b9050919050565b6000819050919050565b611c7a81611c67565b82525050565b611c89816114f8565b82525050565b611c9881611a8b565b82525050565b600063ffffffff82169050919050565b611cb781611c9e565b82525050565b600082825260208201905092915050565b6000611cd982611909565b611ce38185611cbd565b9350611cf3818560208601611925565b611cfc81611784565b840191505092915050565b600060c083016000830151611d1f6000860182611c71565b506020830151611d326020860182611c80565b506040830151611d456040860182611c8f565b506060830151611d586060860182611cae565b506080830151611d6b6080860182611cae565b5060a083015184820360a0860152611d838282611cce565b9150508091505092915050565b60006020820190508181036000830152611daa8184611d07565b905092915050565b600081519050611dc181611502565b92915050565b600060208284031215611ddd57611ddc6114ee565b5b6000611deb84828501611db2565b91505092915050565b7f4e487b7100000000000000000000000000000000000000000000000000000000600052603260045260246000fd5b7f4e487b7100000000000000000000000000000000000000000000000000000000600052601160045260246000fd5b6000611e5d826114f8565b9150611e68836114f8565b9250828203905081811115611e8057611e7f611e23565b5b92915050565b7f4d7573742062652070726f706f736564206f776e657200000000000000000000600082015250565b6000611ebc601683611aec565b9150611ec782611e86565b602082019050919050565b60006020820190508181036000830152611eeb81611eaf565b9050919050565b6000606082019050611f07600083018661171f565b611f14602083018561171f565b611f21604083018461171f565b949350505050565b7f4e487b7100000000000000000000000000000000000000000000000000000000600052601260045260246000fd5b6000611f63826114f8565b9150611f6e836114f8565b925082611f7e57611f7d611f29565b5b828206905092915050565b600081905092915050565b50565b6000611fa4600083611f89565b9150611faf82611f94565b600082019050919050565b6000611fc582611f97565b9150819050919050565b7f7468652063616c6c2066756e6374696f6e206973206e6f20696e207573656400600082015250565b6000612005601f83611aec565b915061201082611fcf565b602082019050919050565b6000602082019050818103600083015261203481611ff8565b9050919050565b61204481611749565b82525050565b602082016000820151612060600085018261203b565b50505050565b600060208201905061207b600083018461204a565b92915050565b7f4f6e6c792063616c6c61626c65206279206f776e657200000000000000000000600082015250565b60006120b7601683611aec565b91506120c282612081565b602082019050919050565b600060208201905081810360008301526120e6816120aa565b9050919050565b7f43616e6e6f74207472616e7366657220746f2073656c66000000000000000000600082015250565b6000612123601783611aec565b915061212e826120ed565b602082019050919050565b6000602082019050818103600083015261215281612116565b905091905056fea26469706673582212205fa458b4e81c733a393d2aec1278a88be8af1117400d408d7a41261aa37abad264736f6c634300081c0033",
  "devdoc": {
    "kind": "dev",
    "methods": {
      "checkUpkeep(bytes)": {
        "details": "This is the function that the Chainlink Keeper nodes call they look for `upkeepNeeded` to return True. the following should be true for this to return true: 1. The time interval has passed between raffle runs. 2. The lottery is open. 3. The contract has ETH. 4. Implicity, your subscription is funded with LINK."
      }
    },
    "version": 1
  },
  "userdoc": {
    "kind": "user",
    "methods": {
      "acceptOwnership()": {
        "notice": "Allows an ownership transfer to be completed by the recipient."
      },
      "owner()": {
        "notice": "Get the current owner"
      },
      "setCoordinator(address)": {
        "notice": "Sets the VRF Coordinator addressThis method should only be callable by the coordinator or contract owner"
      },
      "transferOwnership(address)": {
        "notice": "Allows an owner to begin transferring ownership to a new address."
      }
    },
    "version": 1
  },
  "storageLayout": {
    "storage": [
      {
        "astId": 97,
        "contract": "contracts/Raffle.sol:Raffle",
        "label": "s_owner",
        "offset": 0,
        "slot": "0",
        "type": "t_address"
      },
      {
        "astId": 99,
        "contract": "contracts/Raffle.sol:Raffle",
        "label": "s_pendingOwner",
        "offset": 0,
        "slot": "1",
        "type": "t_address"
      },
      {
        "astId": 299,
        "contract": "contracts/Raffle.sol:Raffle",
        "label": "s_vrfCoordinator",
        "offset": 0,
        "slot": "2",
        "type": "t_contract(IVRFCoordinatorV2Plus)448"
      },
      {
        "astId": 613,
        "contract": "contracts/Raffle.sol:Raffle",
        "label": "s_playersArray",
        "offset": 0,
        "slot": "3",
        "type": "t_array(t_address)dyn_storage"
      },
      {
        "astId": 615,
        "contract": "contracts/Raffle.sol:Raffle",
        "label": "s_subscriptionId",
        "offset": 0,
        "slot": "4",
        "type": "t_uint256"
      },
      {
        "astId": 619,
        "contract": "contracts/Raffle.sol:Raffle",
        "label": "s_keyHash",
        "offset": 0,
        "slot": "5",
        "type": "t_bytes32"
      },
      {
        "astId": 629,
        "contract": "contracts/Raffle.sol:Raffle",
        "label": "randomWords",
        "offset": 0,
        "slot": "6",
        "type": "t_uint256"
      },
      {
        "astId": 631,
        "contract": "contracts/Raffle.sol:Raffle",
        "label": "s_recentWinner",
        "offset": 0,
        "slot": "7",
        "type": "t_address"
      },
      {
        "astId": 635,
        "contract": "contracts/Raffle.sol:Raffle",
        "label": "s_timeStamp",
        "offset": 0,
        "slot": "8",
        "type": "t_uint256"
      },
      {
        "astId": 642,
        "contract": "contracts/Raffle.sol:Raffle",
        "label": "raffleStateEnum",
        "offset": 0,
        "slot": "9",
        "type": "t_enum(RaffleState)608"
      }
    ],
    "types": {
      "t_address": {
        "encoding": "inplace",
        "label": "address",
        "numberOfBytes": "20"
      },
      "t_array(t_address)dyn_storage": {
        "base": "t_address",
        "encoding": "dynamic_array",
        "label": "address[]",
        "numberOfBytes": "32"
      },
      "t_bytes32": {
        "encoding": "inplace",
        "label": "bytes32",
        "numberOfBytes": "32"
      },
      "t_contract(IVRFCoordinatorV2Plus)448": {
        "encoding": "inplace",
        "label": "contract IVRFCoordinatorV2Plus",
        "numberOfBytes": "20"
      },
      "t_enum(RaffleState)608": {
        "encoding": "inplace",
        "label": "enum Raffle.RaffleState",
        "numberOfBytes": "1"
      },
      "t_uint256": {
        "encoding": "inplace",
        "label": "uint256",
        "numberOfBytes": "32"
      }
    }
  }
}